:020000040800F2
:10000000F006002091010008CD14000869130008D3
:10001000C9140008B9040008E11400080000000039
:10002000000000000000000000000000D5140008DF
:10003000BD04000800000000D1140008D914000815
:10004000AB010008AB010008AB010008AB010008E0
:10005000AB010008AB010008AB010008AB010008D0
:10006000AB010008AB010008AB010008AB010008C0
:10007000AB010008AB010008AB010008AB010008B0
:10008000AB010008AB010008AB010008AB010008A0
:10009000AB010008AB010008AB010008AB01000890
:1000A000AB010008AB010008AB010008AB01000880
:1000B000AB010008AB010008AB010008AB01000870
:1000C000AB010008AB010008AB010008AB01000860
:1000D000AB010008AB010008AB010008AB01000850
:1000E000AB010008AB010008AB01000800F002F80A
:1000F00000F03FF80AA090E8000C82448344AAF183
:100100000107DA4501D100F034F8AFF2090EBAE880
:100110000F0013F0010F18BFFB1A43F0010318473B
:100120002017000040170000103A24BF78C878C19B
:10013000FAD8520724BF30C830C144BF04680C60ED
:10014000704700000023002400250026103A28BF35
:1001500078C1FBD8520728BF30C148BF0B60704739
:10016000642900F03580002070471FB51FBD10B511
:1001700010BD00F00BF91146FFF7F7FF01F072FA1E
:1001800000F029F903B4FFF7F2FF03BC00F030F9E7
:100190000948804709480047FEE7FEE7FEE7FEE71B
:1001A000FEE7FEE7FEE7FEE7FEE7FEE70448054957
:1001B000054A064B70470000DD140008ED000008FA
:1001C000F0000020F0060020F0020020F0020020E5
:1001D0002DE9F0410646002410687529314616A520
:1001E00010D0AFF30080002802DA404213A507E0E8
:1001F00031688A0701D512A502E0490704D511A587
:10020000012401E0AFF3008000210A2206F1240757
:1002100009E0B0FBF2FCB0FBF2F302FB1C00303053
:1002200078541846491C0028F3D123462A46304604
:10023000BDE8F04100F051B8000000002D000000C2
:100240002B0000002000000010B5431C02E010F855
:10025000011B71B18107FAD14FF0013202C88C1A2B
:100260008C4314EAC211F9D0C01A0A0603D0C01E8A
:1002700010BDC01A10BD0A0401D0801E10BD0902B5
:10028000FCD0401E10BD4FF0000200B5134694464E
:100290009646203922BFA0E80C50A0E80C50B1F1DE
:1002A0002001BFF4F7AF090728BFA0E80C5048BFF2
:1002B0000CC05DF804EB890028BF40F8042B08BF90
:1002C000704748BF20F8022B11F0804F18BF00F88C
:1002D000012B70477047704770472DE9F0470D4676
:1002E00099469246044600F124080168880604D520
:1002F000E06921F01001216000E00120A84201DD49
:10030000471B00E00027A1697A1902EB0900081ACF
:10031000A0612078C00602D42046AFF300800026FA
:1003200008E0D4E901211AF806009047206A401C31
:10033000761C20624E45F4DB2078C0060AD52046A4
:10034000AFF3008006E0D4E9012130209047206A15
:10035000401C2062381EA7F10107F4DC07E0D4E955
:10036000012118F805009047206A401C2062281ED1
:10037000A5F10105F3DC2046AFF3008020780006EC
:1003800002D50220BDE8F0870120FBE7754600F0AA
:100390002BF8AE4605006946534620F00700854617
:1003A00018B020B5FFF702FFBDE820404FF000066F
:1003B0004FF000074FF000084FF0000BAC46ACE8E0
:1003C000C009ACE8C009ACE8C009ACE8C00921F03C
:1003D00007018D46704710B50446AFF300802046F4
:1003E000BDE81040FFF7CEBE00487047280000204F
:1003F00001491820ABBEFEE726000200704700004E
:10040000B0B582B004460020019021688A68D20706
:100410004FD1886840F00100886040F22000C2F2AD
:10042000000000684DF68361C4F21B31A0FB01019E
:10043000880C01900198A0B10198013801900198B1
:1004400078B1019801380190019850B101980138B4
:100450000190019828B10198013801900198002875
:10046000EAD100F081FB21688968C9071CD10546E3
:1004700003E000BF8068C0071AD100F075FB411B84
:1004800020680329F6D38168C907F3D1A06A40F038
:100490001000A062E06A40F00100E062002084F8F1
:1004A0002400012002B0B0BD002002B0B0BD00BFEA
:1004B000002002B0B0BD0000FEE700007047000061
:1004C00010B581B00022009290F82420012A03D1B7
:1004D0000221084601B010BD4B680122062B80F8AE
:1004E000242017D8D0F800C003EB83035A1F1F2322
:1004F000DCF834E003FA02F40B682EEA040403FA91
:1005000002F22243CCF83420092B03EB430219D921
:1005100036E000BFD0F800C00C2B03EB83021DD8DF
:10052000233A1F23DCF830E003FA02F40B682EEACA
:10053000040403FA02F22243CCF83020092B03EB27
:1005400043021DD8DCF81030072489689440A34387
:1005500091401943CCF81010002130E0413A1F239C
:10056000DCF82CE003FA02F40B682EEA040403FA28
:1005700002F22243CCF82C20092B03EB4302E1D9F1
:10058000DCF80CE01E3A0724896894402EEA040443
:10059000914023F001022143102ACCF80C100DD118
:1005A00042F20841C4F20101A1F1080294450DD0C4
:1005B000816A41F020018162012100E000210022D6
:1005C00080F82420084601B010BD00BF0A6812025E
:1005D00030D40A68102B42F400020A602CD140F299
:1005E0002001C2F2000109684DF68362C4F21B3299
:1005F000A1FB0212910C01EB8101490000910099CD
:10060000E1B10099013900910099C9B1009901390E
:1006100000910099B1B1009901390091009999B107
:10062000009901390091009900294FF00001E8D1AB
:10063000C5E700BF0021C2E70021C0E70021BEE7F7
:100640000021BCE70021BAE70021B8E7B0B50028D7
:1006500000F0A8800446806A20B121688868C0073D
:100660000BD114E00020E06284F82400204600F062
:100670009BF821688868C00709D0886820F00100CD
:10068000886000F071FA21688A68D20726D1A06AD2
:10069000C0063AD4A06A41F2021290430230A0622E
:1006A000E069D4E9013240EA030C531EB3FA83F344
:1006B0005D091346B2F5807F18BF2B02207D257B94
:1006C00001284CEA450030D135B3A56A45F0200534
:1006D000A562E56A45F00105E56226E0054602E00F
:1006E0008868C007D3D000F03FFA401B2168032878
:1006F000F6D38868C007F3D0A06A40F01000A0626B
:10070000E06A40F00100E062A06AA06A40F01000D8
:10071000A0620120B0BD00BFD4F818C04EF600059D
:10072000CFF6FF7505EB4C352B434D68B2F5807F56
:1007300025F4694543EA05034B608B684FF2FD756C
:10074000CFF6E17503EA050343EA00038B6001D0AD
:10075000012A07D122690023CFF6F07303EB02527E
:1007600001E000BF0022CB6A23F470031A43CA627F
:10077000896840F6FE62CFF61F721140814207D1B0
:100780000020E062A16A012262F30101A162B0BD12
:10079000A06A40F0100020F00200A062E06A40F081
:1007A0000100E0620120B0BD80B586B0006842F66D
:1007B0000001C4F2010188424FF00001CDE90411AB
:1007C000CDE902111ED042F20041C4F2010188427B
:1007D00039D141F21800C4F20200016841F40071FD
:1007E0000160016801F4007101910199016841F013
:1007F00004010160006800F00400019001980120EC
:1008000017E000BF41F21800C4F20200016841F491
:1008100080610160016801F48061019101990168C2
:1008200041F004010160006800F0040001900198AB
:10083000022002900320039040F60000C4F2010061
:1008400002A900F07DF806B080BD000010B5044696
:1008500090F82400012804BF022010BD012084F874
:1008600024002046FFF7CCFD20B1002184F824109D
:1008700010BD00BF42F2044C2068A16AC4F2010C12
:1008800040F2013291430CF57F7201F58071904284
:10089000A16233D0A16A21F48011A16241684905A7
:1008A00004D5A16A012363F30D31A162A16A00237B
:1008B000C9044FF0000144BFE16A21F00601E16282
:1008C0006FF0020184F824300160816801F4602136
:1008D000B1F5602F06D190420AD1DCF8001011F476
:1008E000702F05D0816841F480118160002010BD17
:1008F000816841F4A0018160002010BDDCF8001087
:1009000011F4702FC6D0A16A41F48011A162DCF805
:1009100000104905C5D4C9E7B0B5044600F024F974
:10092000054640F21800C2F200000078611C18BFB2
:10093000044400BF00F018F9401BA042FAD3B0BD38
:100940002DE9F04F82B00E68002E00F0038140F2D6
:100950000C4C41F200424FF6FF7EC4F2010CC4F28F
:100960000102042700240123C1F2100E4FF0000AF7
:100970004FF00009904208BF0327009745E000BFF1
:10098000012704F00C030F229A402BEA020207FA17
:1009900003F34FEA9A051A4346F82520D1F804B02C
:1009A00040F20045C4F201055FEACB322A6854BF29
:1009B00022EA080242EA08022A606A685FEA8B3388
:1009C00054BF22EA080242EA08026A605FEACB23C7
:1009D000AA6854BF22EA080242EA08025FEA8B23AF
:1009E000AA60DCF800204FF0010354BF22EA08029D
:1009F00042EA0802CCF800200E680AF1010A36FA31
:100A00000AF204F1040400F0A58003FA0AF816EAD9
:100A1000080FF1D04E68764512DC122E56D8DFE86A
:100A200006F0350B454955555555555555555555B0
:100A30005555554D510000BFD1F80C9046E000BF10
:100A40004FF6FF72C1F2210296420FDC0022C1F282
:100A5000110296421AD00022C1F21202964215D01B
:100A60000022C1F22102964210D02FE00022C1F2F2
:100A7000220296420AD00022C1F23102964205D0EB
:100A80000022C1F23202964220D100BF8A684AB1E8
:100A9000012A14BFC0F81480C0F810804FF0080974
:100AA00014E000BF4FF0040910E000BFCA6802F173
:100AB00008090BE04FF0000908E000BFCA6802F126
:100AC000040903E0CA6802F10C0900BF2246064689
:100AD000BAF1080F24BF203A043637680F25954035
:100AE00027EA050509FA02F22A433260CA79D206DA
:100AF0007FF582AF41F21803C4F202031A6842F094
:100B000001021A601A6802F001020192019A40F291
:100B10000042C4F20102A2F57E762AF0030256F8E2
:100B200002B040F60002C4F20102904210D040F63A
:100B30000042C4F2010290423FF422AF41F20002AF
:100B4000C4F20102009F904208BF022719E700BFCC
:100B5000002716E702B0BDE8F08F0000002A08BFAA
:100B6000090401617047000040F2E800C2F2000091
:100B70000068704740F2180040F2E801C2F200003D
:100B8000C2F2000100780A68104408607047000053
:100B900080B542F20000C4F20200016841F0100189
:100BA0000160032000F07AF8002000F005F800F062
:100BB00027F8002080BD000070B540F21806C2F290
:100BC000000640F220013278C2F200014FF47A733D
:100BD0000968B3FBF2F20446B1FBF2F1084600F0FB
:100BE000ADFB0F2C4FF0010508D838B94FF0FF309E
:100BF00021460022002500F025F87460284670BDCB
:100C000082B041F21800C4F202000168022241F0F1
:100C100001010160016801F0010101910199416840
:100C200041F080514160406800F080500090009891
:100C30000420C4F20100016862F31A61016002B08D
:100C40007047000010B54EF60C5CCEF2000CDCF8DC
:100C50000030C3F3022E8EF00704042C28BF0424B6
:100C6000BEF103034FF0FF3E0EFA04F438BF002339
:100C7000A14399400EFA03F39A43114300F00F0287
:100C800000F160430901043A03F56443624400281B
:100C900048BF02F10C03197010BD00004EF60C5154
:100CA000CEF200010A684FF6FF031A4060F30A22F1
:100CB00042F0806040F0FD70086070472DE9F0411F
:100CC00082B00446007841F21C06C007C4F2020656
:100CD0004AD0306810F0805808D1306840F0805019
:100CE0003060306800F080500190019847F20007B2
:100CF000C4F200073868C00512D4386840F4807028
:100D00003860FFF731FF05463868C00508D4FFF7A3
:100D10002BFF401B6428F7D9032002B0BDE8F08107
:100D2000706810F4407012D0616801F4407188421C
:100D30000DD0706840F24042C4F24222012320F4F8
:100D4000407113600023C007136071602AD170687E
:100D5000616820F440700843B8F1000F706003D15F
:100D6000306820F0805030602068810707D556F841
:100D7000181CA26821F44041114346F8181CC00613
:100D800004D4002002B0BDE8F08100BF56F8180C72
:100D9000E16820F48000084346F8180C002002B0F7
:100DA000BDE8F081FFF7E0FE054641F2883700BF5D
:100DB00070688007CBD4FFF7D7FE401BB8424FF0D6
:100DC0000300F5D9EBE700002DE9F04381B00028DE
:100DD00000F0858042F20008C4F202080446D8F808
:100DE00000000D4600F0070088420CD2D8F8000041
:100DF00020F007002843C8F80000D8F8000000F0F1
:100E00000700A8426BD1206841F204098107C4F2AF
:100E1000020917D5410705D5D9F8001041F4E06162
:100E2000C9F80010010705D5D9F8001041F4605148
:100E3000C9F80010D9F80010A26821F0F0011143A0
:100E4000C9F80010C00741D1D8F8000000F0070031
:100E5000A8420CD9D8F8000020F007002843C8F8B1
:100E60000000D8F8000000F00700A84237D1206841
:100E7000410707D5D9F80010E26821F4E061114379
:100E8000C9F80010000708D5D9F80000216920F43E
:100E9000605040EAC100C9F80000D9F8002002F013
:100EA0000C00082841F20020C0F27A0050D141F62F
:100EB0002E03C2F38341C0F60003595CD2033BD436
:100EC00040F60010C0F23D00484341E0606802284F
:100ED0000AD001282AD159F8041C890308D401201A
:100EE00001B0BDE8F08300BF59F8041C8901F6D5B4
:100EF000D9F8001021F003010843C9F80000FFF7FA
:100F000033FE064641F28837D9F80000616800F0E8
:100F10000C00B0EB810F97D0FFF726FE801BB84284
:100F2000F2D9032001B0BDE8F08300BF59F8041CDA
:100F30008907D4D5DCE700BFD9F8002041F61C03AF
:100F4000C2F34042C0F600039A5C4843B0FBF2F0A3
:100F5000D9F8001041F61E02C1F30311C0F60002D9
:100F6000515C40F2200220FA01F140F21C00C2F272
:100F700000000068C2F200021160FFF71DFE0020B1
:100F800001B0BDE8F08300002DE9F04182B00028F7
:100F900068D00446007841F20006C007C4F2020699
:100FA00025D0706800F00C0004281BD0706800F099
:100FB0000C00082802D17068C00313D460680028B0
:100FC00000F06881B0F5A02F00F07C81B0F5803F83
:100FD00000F07C81306820F480303060306820F48C
:100FE000802076E13068800301D56068D0B3207836
:100FF000800718D5706810F00C0F07D0706800F0EB
:101000000C0008286ED17068C0036BD4306880076C
:1010100002D52069012825D13068616920F0F800E7
:1010200040EAC1003060207800071FD420784007D4
:1010300032D4E56995B1706800F00C00082840F0E2
:101040008F80012D0ED07068216A00F480328A42B0
:1010500008D1616A00F47010884203D1002002B008
:10106000BDE8F081012002B0BDE8F081A069002850
:1010700062D00020C4F242200121C0F88014FFF7A2
:1010800073FD0546706A800700F18C80FFF76CFDE8
:10109000401B0228F6D92AE1F06910F0805808D1E7
:1010A000F06940F08050F061F06900F080500090ED
:1010B000009847F20007C4F200073868C00529D439
:1010C000386840F480703860FFF74EFD054600BF79
:1010D0003868C0051ED4FFF747FD401B6428F7D9C8
:1010E00005E100BF2069002840F20000C4F2422060
:1010F00000F0828001210160FFF736FD054600BF48
:10110000306880073FF588AFFFF72EFD401B0228AF
:10111000F6D9ECE0E068002800F08080052800F0B7
:101120009780012800F09880306A20F0010030623A
:10113000306A20F0040092E00020C4F24220002136
:10114000C0F88014FFF710FD054600BF706A8007E5
:101150007FF56CAFFFF708FD401B0228F6D9C6E00B
:101160000027C4F2422700203866FFF7FDFC022D5D
:1011700005460BD13068800140F1BE80FFF7F4FCDA
:10118000401B02284FF00300F4D968E73068800163
:101190007FF564AFFFF7E8FC401B02284FF0030027
:1011A000F4D95CE740F22000C2F20000006844F687
:1011B000D351C1F26201A0FB0101480A019000BFB6
:1011C00000BF0198411E002801913FF42FAF00BFDE
:1011D0000198411E002801913FF428AF00BF0198FB
:1011E000411E002801913FF421AF00BF0198411E2C
:1011F00000280191E4D119E700210160FFF7B4FC58
:10120000054600BF306880077FF50DAFFFF7ACFCE7
:10121000401B02284FF00300F4D920E7306A20F089
:1012200001003062306A20F004003062FFF79CFC5D
:10123000054641F2883700BF306A800720D5FFF7A6
:1012400093FC401BB8424FF00300F5D907E700BFFD
:10125000306A40F004003062306A40F001003062D1
:10126000FFF782FC054641F2883700BF306A8007ED
:1012700006D4FFF779FC401BB842F7D937E000BF2E
:10128000B8F1000F7FF4D5AEF06920F08050F06126
:10129000CFE600BF306820F480303060306820F442
:1012A00080203060FFF760FC054600BF3068800397
:1012B0007FF59DAEFFF758FC401B64284FF00300FC
:1012C000F4D9CCE6306840F480203060306840F4D7
:1012D00080303060FFF748FC054600BF306880036F
:1012E0003FF585AEFFF740FC401B6428F6D903208C
:1012F00002B0BDE8F08100BF206AB0F5803F05D1A3
:101300007168A26821F40031114371607168626AEA
:1013100021F4741111430843706001203866FFF70F
:1013200023FC0446306880013FF598AEFFF71CFCB3
:10133000001B02284FF00300F4D990E6411E002064
:10134000B0EB116F1CBF012070474EF21002CEF2BD
:10135000000251604EF62351CEF20001F0230B70D3
:101360000721906011607047FEE700002DE9F0430F
:1013700085B041F21800C4F20200016840F6000492
:1013800041F0040101600168C4F2010401F00401AC
:1013900001910199016801AD41F008010160016806
:1013A0004FF4004801F008010191019901684FF0E4
:1013B000010941F0100101600068002600F01000F2
:1013C00001900198032704F580602946CDF8048038
:1013D000CDF8089003960497FFF7B2FA4FF4007027
:1013E000CDE9010920462946CDE90367FFF7A8FAB0
:1013F0004FF48070CDE9010920462946CDE9036705
:10140000FFF79EFA20464FF480710022FFF7A6FBFB
:101410004FF48060CDE9010920462946CDE90367F4
:10142000FFF78EFA4FF40060CDE901092046294606
:10143000CDE90367FFF784FA4FF48050CDE9010945
:1014400020462946CDE90367FFF77AFA2046294668
:10145000CDE90189CDE90367FFF772FA332000F087
:1014600041F8322000F03EF8282000F03BF801203F
:1014700000F038F80C2000F035F8062000F032F8C3
:1014800005B0BDE8F0830000012000F02BB800009B
:10149000002918BF403040F08000C0B200F022B8F0
:1014A00070B504460078002808BF70BD00260025EE
:1014B000A05D00F077F801352046EEB2FEF7C4FEDD
:1014C000B042F5D870BD0000FEE700007047000094
:1014D0007047000070470000FFF74CBB70470000EA
:1014E000FEE7000070B540F60004C4F201040546B2
:1014F00004F580604FF400410022FFF72FFB40F21B
:101500000006C2F20006B0683188C5F30012FFF78A
:1015100025FBF0687188C5F34012FFF71FFB3069A7
:10152000B188C5F38012FFF719FB7069F188EA09E9
:10153000FFF714FB20464FF400710122FFF70EFB6A
:101540000120FFF7E9F920464FF400710022FFF770
:1015500005FBB068318805F00102FFF7FFFAF0687B
:101560007188C5F34002FFF7F9FA3069B188C5F315
:101570008002FFF7F3FA7069F188C5F3C002FFF744
:10158000EDFA20464FF400710122FFF7E7FA01203F
:10159000FFF7C2F920464FF400710022BDE8704009
:1015A000FFF7DCBA70B540F60004C4F2010405464A
:1015B00004F580604FF400410122FFF7CFFA40F2BA
:1015C0000006C2F20006B0683188C5F30012FFF7CA
:1015D000C5FAF0687188C5F34012FFF7BFFA3069A9
:1015E000B188C5F38012FFF7B9FA7069F188EA098A
:1015F000FFF7B4FA20464FF400710122FFF7AEFA6C
:101600000120FFF789F920464FF400710022FFF70F
:10161000A5FAB068318805F00102FFF79FFAF0687B
:101620007188C5F34002FFF799FA3069B188C5F3B4
:101630008002FFF793FA7069F188C5F3C002FFF7E3
:101640008DFA20464FF400710122FFF787FA01203E
:10165000FFF762F920464FF400710022BDE87040A8
:10166000FFF77CBA94B0FFF793FAFFF77FFE0AAC5E
:10167000201D2421FEF707FE102000274FF0020A4C
:101680004FF001090F9020460497CDE90277CDF87D
:1016900028A0CDF838901197FFF776FC0F20CDE900
:1016A000050705A80021CDE907770997FFF78CFB0F
:1016B00001A8CDF804A00397FFF700FB41F2180042
:1016C000C4F20200016840F6000841F01001016018
:1016D0000168C4F2010801F010010A910A99016839
:1016E00008F5006641F0200101600168002201F068
:1016F00020010A910A9901684FF4005441F0040155
:101700000160016801F004010A910A99016841F041
:101710000801016000684FF4005100F008000A90D1
:101720000A983046FFF71AFA404649F6307100220F
:1017300049F6307BFFF712FA08F5806528464FF42A
:1017400000410022FFF70AFACDE90A490AAC304607
:101750002146CDE90C7AFFF7F3F840462146CDE962
:101760000AB9CDE90C7AFFF7EBF84FF40040CDE968
:101770000A0928462146CDE90C7AFFF7E1F840F244
:10178000880508F5E050C2F200054FF46026C5E96F
:101790000007284685F80C902F75EE61AF60C5F8FC
:1017A0001090FEF753FF0AA92846CDE90A790C9755
:1017B000FEF786FE08F500502C4644F8300F204610
:1017C00085F83C9085F84470EE64C5E90D77C5F85E
:1017D0004090FEF73BFF0AA92046CDE90A990C97F5
:1017E000FEF76EFE2846FFF731F82046FFF72EF889
:1017F00004200021FFF74CFE05A0FFF751FE42F246
:101800001070FFF789F8FFF73FFE00BFFEE700BF4B
:1018100057656C636F6D65210000000001020000D8
:10182000000000000000010203040607080902038B
:101830000405060708090A0B0C0D0E0F1010000016
:10184000601800080000002028000000280100089F
:101850008818000828000020C8060000440100087D
:10186000000400080010008000080140000801404A
:1018700000080140000801400100000010000000C5
:081880000024F4000000000048
:04000005080000ED02
:00000001FF
